{
  "_format": "hh-sol-artifact-1",
  "contractName": "users",
  "sourceName": "contracts/users.sol",
  "abi": [
    {
      "anonymous": false,
      "inputs": [
        {
          "indexed": false,
          "internalType": "address",
          "name": "claimant",
          "type": "address"
        },
        {
          "indexed": false,
          "internalType": "int32",
          "name": "studentid",
          "type": "int32"
        }
      ],
      "name": "LogStudentRegistered",
      "type": "event"
    },
    {
      "inputs": [
        {
          "internalType": "int32",
          "name": "studentid",
          "type": "int32"
        }
      ],
      "name": "getAddressFromID",
      "outputs": [
        {
          "internalType": "address",
          "name": "",
          "type": "address"
        }
      ],
      "stateMutability": "view",
      "type": "function"
    },
    {
      "inputs": [
        {
          "internalType": "int32",
          "name": "studentid",
          "type": "int32"
        },
        {
          "internalType": "address",
          "name": "sender",
          "type": "address"
        }
      ],
      "name": "recordExistance",
      "outputs": [],
      "stateMutability": "nonpayable",
      "type": "function"
    },
    {
      "inputs": [
        {
          "internalType": "int32",
          "name": "",
          "type": "int32"
        }
      ],
      "name": "registry",
      "outputs": [
        {
          "internalType": "address",
          "name": "",
          "type": "address"
        }
      ],
      "stateMutability": "view",
      "type": "function"
    },
    {
      "inputs": [
        {
          "internalType": "int32",
          "name": "studentid",
          "type": "int32"
        }
      ],
      "name": "userExists",
      "outputs": [
        {
          "internalType": "bool",
          "name": "doesIndeed",
          "type": "bool"
        }
      ],
      "stateMutability": "view",
      "type": "function"
    }
  ],
  "bytecode": "0x608060405234801561001057600080fd5b506103fc806100206000396000f3fe608060405234801561001057600080fd5b506004361061004c5760003560e01c80633beb5b6914610051578063510298de146100ac578063801ecf9614610107578063c440e92d1461014e575b600080fd5b6100806004803603602081101561006757600080fd5b81019080803560030b906020019092919050505061019f565b604051808273ffffffffffffffffffffffffffffffffffffffff16815260200191505060405180910390f35b6100db600480360360208110156100c257600080fd5b81019080803560030b90602001909291905050506101d2565b604051808273ffffffffffffffffffffffffffffffffffffffff16815260200191505060405180910390f35b6101366004803603602081101561011d57600080fd5b81019080803560030b9060200190929190505050610226565b60405180821515815260200191505060405180910390f35b61019d6004803603604081101561016457600080fd5b81019080803560030b9060200190929190803573ffffffffffffffffffffffffffffffffffffffff169060200190929190505050610297565b005b60006020528060005260406000206000915054906101000a900473ffffffffffffffffffffffffffffffffffffffff1681565b60006101dd82610226565b6101e657600080fd5b6000808360030b60030b815260200190815260200160002060009054906101000a900473ffffffffffffffffffffffffffffffffffffffff169050919050565b60008073ffffffffffffffffffffffffffffffffffffffff166000808460030b60030b815260200190815260200160002060009054906101000a900473ffffffffffffffffffffffffffffffffffffffff1673ffffffffffffffffffffffffffffffffffffffff1614159050919050565b6102a082610226565b15610313576040517f08c379a00000000000000000000000000000000000000000000000000000000081526004018080602001828103825260148152602001807f6572726f7220616c72656164792065786973747300000000000000000000000081525060200191505060405180910390fd5b806000808460030b60030b815260200190815260200160002060006101000a81548173ffffffffffffffffffffffffffffffffffffffff021916908373ffffffffffffffffffffffffffffffffffffffff1602179055507fc1d6a3f956e349609862918bc396e15ba3adeaa3df2951cdacc9798bb1c25bba8183604051808373ffffffffffffffffffffffffffffffffffffffff1681526020018260030b81526020019250505060405180910390a1505056fea264697066735822122040d2795c5c46a7371d0419d998e5154516cd2a04319319d4e6e03f253f93438664736f6c63430007030033",
  "linkReferences": {},
  "deployedLinkReferences": {}
}